:020000040001F9
:10F00000305C002015F401001DF401001FF4010024
:10F0100031F4010033F4010035F401000000000078
:10F0200000000000000000000000000037F40100B4
:10F0300039F40100000000003BF401003DF4010040
:10F04000C50202003FF40100E90602003FF401009E
:10F050003FF401003FF4010055F701003FF40100C7
:10F060003FF401003FF401003FF401003FF40100D0
:10F070003FF401003FF401003FF401003FF40100C0
:10F080003FF40100510302003FF401003FF401008E
:10F09000850302003FF401008D0302003FF40100EC
:10F0A0003FF401003FF401003FF401003FF4010090
:10F0B000150302003FF40100000000000000000002
:10F0C0003FF40100290302003D0302003FF4010068
:10F0D0003FF401003FF401003FF401000000000094
:10F0E0000000000000000000000000000000000020
:10F0F0000000000000000000000000000000000010
:10F1000000000000000000000000000000000000FF
:10F1100000000000000000000000000000000000EF
:10F40000DFF80CD000F0AAF80048004715490200C8
:10F41000305C00200A4880470A480047FEE71EF09B
:10F42000040F0CBFEFF30880EFF3098000F0AEBAD1
:10F43000FEE7FEE7FEE7FEE7FEE7FEE7FEE7FEE7A4
:10F440009D04020001F401000649074A0868504380
:10F4500043F23902104408604008704701490860CF
:10F4600070470000342300206D4EC64140EA01037E
:10F470009B0703D009E008C9121F08C0042AFAD26A
:10F4800003E011F8013B00F8013B521EF9D270472E
:10F49000D2B201E000F8012B491EFBD270470022D6
:10F4A000F6E710B513460A4604461946FFF7F0FF83
:10F4B000204610BD421C10F8011B0029FBD1801A08
:10F4C000704710B5002200E0521C835C8C5CA342A4
:10F4D00001D1002BF8D1D8B2E1B2401A10BD30B53D
:10F4E00004460020034600E05B1C934203D2E05C2C
:10F4F000CD5C401BF8D030BD2DE9F05F0546002003
:10F5000092469B4688460646814640241BE0284694
:10F5100041464746224600F042F853465A46C01A32
:10F52000914110D311461846224600F029F82D1AB1
:10F5300067EB01084F4622460120002100F020F829
:10F5400017EB00094E41201EA4F10104DFDC484600
:10F5500031462A464346BDE8F09F0000064C074D61
:10F5600006E0E06840F0010394E807009847103493
:10F57000AC42F6D3FFF748FFE09F020000A0020074
:10F58000202A04DB203A00FA02F100207047914063
:10F59000C2F1200320FA03F3194390407047202A58
:10F5A00004DB203A21FA02F00021704721FA02F32D
:10F5B000D040C2F12002914008431946704770B50F
:10F5C0008C1810F8015B15F0070301D110F8013B0E
:10F5D0002A1106D110F8012B03E010F8016B01F895
:10F5E000016B5B1EF9D12B0705D40023521E0DD4ED
:10F5F00001F8013BFAE710F8013BCB1A921C03E03B
:10F6000013F8015B01F8015B521EF9D5A142D8D372
:10F61000002070BD70B505460E46144629462046AA
:10F6200000F072F8044804600448066000F0B6FC7C
:10F6300000F0D2F970BD0000F8220020FC2200206A
:10F6400070B505460E4614462946204600F05CF883
:10F65000044804600448066000F0A0FC00F05EF876
:10F6600070BD0000F8220020FC22002010B50246E8
:10F67000002018E0002112E0130103EB80030B448B
:10F680000A4CE35C0A4C246804EB8004645C63402D
:10F69000074C246804EB800463544B1CD9B2042942
:10F6A000EADB431CD8B20428E4DB10BDD4300020D0
:10F6B000F82200202DE9F04180460C460025002765
:10F6C0002046E11704EB11710911A4EB0111C1F1FE
:10F6D0001001CEB2102003F0E9FE0546002028609C
:10F6E00000BF02E0EE55781CC7B2B742FADB08EB68
:10F6F000040032462946FFF7B9FE284603F02EFFE4
:10F70000A019C0B2BDE8F0810246002003E00B5C06
:10F710001354431CD8B21028F9DB704710B50024ED
:10F720000020FFF7A3FF01240AE000F093FE00F0A1
:10F7300045FE00F0E5FC2046FFF798FF601CC4B2D0
:10F740000A2CF2DB00F086FE00F038FE0A20FFF7FC
:10F750008DFF10BD2DE9F04F89B04FF0000800205B
:10F7600008904FF4807007900126002413E007985A
:10F7700005F0DEFF48B100BF81480068304020B18D
:10F78000079805F0C7FF48EA060876000798001DAD
:10F7900080B20790641C082CE9D34FF4BE7005F0CA
:10F7A000C7FF50B14FF4BE7005F0B4FF48F00048F9
:10F7B00008AA0121002005F093FF08F0FF0000B324
:10F7C000012600241BE006EA0800B0B100BF6D4826
:10F7D00050F82400C0F30420074600BF694850F8E1
:10F7E0002400C0F301408146204603F07DF9054620
:10F7F00015B149463846A84700BF7600641C082C5E
:10F80000E1D308F0004000287ED00020069005904B
:10F81000002505E04FF0FF3004A941F825006D1CDC
:10F82000002DF7D000BF0020069000246FE056485E
:10F83000005D0390039820F0C00753480057401C18
:10F84000002863D004A9384605F0E0F900285DD00F
:10F8500003984FEA901A384603F08EF9814603F078
:10F8600043F90290029810B9BAF1030F4BD1BAF1E3
:10F87000030F11D1394605A80246CB0801F0070154
:10F8800012F803C04FF0010E0EFA01FE4CEA0E0C06
:10F8900002F803C000BF00BF00BF00BF4FF0A0418F
:10F8A000084600F5E06151F82710C1F3014900BF97
:10F8B00008A9384605F0AAF98346BBF1000F02D02B
:10F8C000B9F1020F05D0BBF1000F1BD1B9F1030F45
:10F8D00018D1BAF1030F0FD1B9F1020F01D10320F2
:10F8E00000E0022001903846019905F0ABFE069831
:10F8F000401CC0B2069000BF029818B1514638466D
:10F90000029A904700BF00E036E000BF641C042C60
:10F910008DD3069858B3012703AA0121002005F0D2
:10F92000DFFE00250AE003A850F8250008A951F8D9
:10F930002510884201D0002702E06D1C002DF2D076
:10F9400000BF17B10020069010E000250CE003A8CE
:10F9500050F8250008A941F8250005A850F8250011
:10F9600004A941F825006D1C002DF0D000BF0698B9
:10F9700000287FF458AF00BF09B0BDE8F08F000049
:10F9800004630040106500403829002004462046EA
:10F9900000F000F800BF00BF00BF00BF00BFBFF312
:10F9A0004F8F00BF00BF00BF0948006800F4E0604F
:10F9B00008490843001D0649086000BF00BF00BF9A
:10F9C000BFF34F8F00BF00BF00BF00BF00BFFDE708
:10F9D0000CED00E00000FA0510B500240A20FFF746
:10F9E00045FE09240AE000F071FA00F0BBFA204657
:10F9F000FFF73CFE00F00CF8601EC4B2002CF2DCF5
:10FA000000F064FA00F0AEFA0020FFF72FFE10BD00
:10FA100030B589B00020089050E2FE48016808988F
:10FA200011F820000790FB480168089801EB80005E
:10FA300040780690F7480168089801EB80008078CC
:10FA40000590F4480168089801EB8000C0780490A4
:10FA500007980AF02FF8044607980AF02BF803904D
:10FA60000AF028F8444007980AF024F802900AF0B7
:10FA700021F803900AF01EF8444007980AF01AF89B
:10FA800001900AF017F802900AF014F803900AF0B7
:10FA900011F806980AF00EF80546069845400AF057
:10FAA00009F803900AF006F806980AF003F80290A5
:10FAB0000AF000F8039009F0FDFF4540069809F0B0
:10FAC000F9FF019009F0F6FF029009F0F3FF0390AF
:10FAD00009F0F0FF6C40059809F0ECFF0598054629
:10FAE00009F0E8FF039009F0E5FF4540059809F0AB
:10FAF000E1FF029009F0DEFF039009F0DBFF4540D3
:10FB0000059809F0D7FF019009F0D4FF029009F0A1
:10FB1000D1FF039009F0CEFF6C40049809F0CAFFB2
:10FB20000498054609F0C6FF039009F0C3FF049846
:10FB300009F0C0FF029009F0BDFF039009F0BAFF81
:10FB40004540049809F0B6FF019009F0B3FF029018
:10FB500009F0B0FF039009F0ADFF6C40AD480168BB
:10FB6000089801F82040079809F0A4FF0798044678
:10FB700009F0A0FF039009F09DFF079809F09AFF94
:10FB8000029009F097FF039009F094FF4440079812
:10FB900009F090FF019009F08DFF029009F08AFFB3
:10FBA000039009F087FF069809F084FF0546069840
:10FBB00009F080FF039009F07DFF4540069809F0A9
:10FBC00079FF029009F076FF039009F073FF45403A
:10FBD000069809F06FFF019009F06CFF029009F0A0
:10FBE00069FF039009F066FF6C40059809F062FF19
:10FBF00005460598454009F05DFF039009F05AFF5E
:10FC0000059809F057FF029009F054FF039009F09E
:10FC100051FF4540059809F04DFF019009F04AFF5A
:10FC2000029009F047FF039009F044FF6C400498EC
:10FC300009F040FF0498054609F03CFF039009F0E5
:10FC400039FF4540049809F035FF029009F032FF72
:10FC5000039009F02FFF4540049809F02BFF019015
:10FC600009F028FF029009F025FF039009F022FF18
:10FC70006C4068480168089801EB80004470079860
:10FC800009F018FF0798044609F014FF039009F0E3
:10FC900011FF4440079809F00DFF029009F00AFF98
:10FCA000039009F007FF4440079809F003FF019013
:10FCB00009F000FF029009F0FDFE039009F0FAFE42
:10FCC000069809F0F7FE0698054609F0F3FE039042
:10FCD00009F0F0FE069809F0EDFE029009F0EAFE48
:10FCE000039009F0E7FE4540069809F0E3FE019015
:10FCF00009F0E0FE029009F0DDFE039009F0DAFE63
:10FD00006C40059809F0D6FE0546059809F0D2FE2C
:10FD1000039009F0CFFE4540059809F0CBFE029014
:10FD200009F0C8FE039009F0C5FE4540059809F0AA
:10FD3000C1FE019009F0BEFE029009F0BBFE0390E7
:10FD400009F0B8FE6C40049809F0B4FE054604982A
:10FD5000454009F0AFFE039009F0ACFE049809F0AD
:10FD6000A9FE029009F0A6FE039009F0A3FE45400B
:10FD7000049809F09FFE019009F09CFE029009F0A2
:10FD800099FE039009F096FE6C402248026808989C
:10FD900002EB80008470079809F08CFE04460798F7
:10FDA000444009F087FE039009F084FE079809F0AB
:10FDB00081FE029009F07EFE039009F07BFE444034
:10FDC000079809F077FE019009F074FE029009F09F
:10FDD00071FE039009F06EFE069809F06BFE06981E
:10FDE000054609F067FE039009F064FE4540069859
:10FDF00009F060FE029009F05DFE039009F05AFEE2
:10FE00004540069809F056FE019009F053FE029015
:10FE100002E00000F822002009F04CFE039009F0F7
:10FE200049FE6C40059809F045FE0598054609F025
:10FE300041FE039009F03EFE059809F03BFE02905A
:10FE400009F038FE039009F035FE4540059809F0A9
:10FE500031FE019009F02EFE029009F02BFE039076
:10FE600009F028FE6C40049809F024FE0546049829
:10FE700009F020FE039009F01DFE4540049809F0AA
:10FE800019FE029009F016FE039009F013FE45409A
:10FE9000049809F00FFE019009F00CFE029009F0A1
:10FEA00009FE039009F006FE6C40074802680898B6
:10FEB00002EB8000C4700898401C08900898042841
:10FEC000FFF6ABAD09B030BDF82200202449096827
:10FED000487B234909684A7A214909684A732049BD
:10FEE00009684A791E4909684A721D4909684A78B1
:10FEF0001B4909684A711A49096848701849096814
:10FF0000887817490968897A154A126891701449E6
:10FF100009688872124909688879114909688A7BD9
:10FF20000F4909688A710E49096888730C49096884
:10FF3000C8780B490968C979094A1268D17008491B
:10FF40000968CA7A06490968CA7105490968CA7BFD
:10FF500003490968CA7202490968C87370470000FA
:10FF6000F822002070B5002413E000250DE00A49B6
:10FF7000096801EB8501085D03F0DAFE06490968AE
:10FF800001EB85010855681CC5B2042DEFDB601C30
:10FF9000C4B2042CE9DB70BDF8220020F8B50024BF
:10FFA00029E0002000EB840052490968085C002128
:10FFB00001EB8401504A5054012000EB84004D496C
:10FFC0000968085C012101EB84015054022000EB18
:10FFD000840048490968085C022101EB84015054FF
:10FFE000032000EB840043490968085C032101EB0E
:10FFF00084015054641C042CD3D378E0002507E01E
:020000040002F8
:10000000601E05EB80003C49085C0DF805006D1C86
:10001000042DF5D304F0030088BB9DF800609DF823
:1000200001008DF800009DF802008DF801009DF898
:1000300003008DF802008DF803609DF8000003F0C6
:100040007DFE8DF800009DF8010003F077FE8DF82D
:1000500001009DF8020003F071FE8DF802009DF88A
:10006000030003F06BFE8DF803009DF800002349A8
:1000700001EB9401097848408DF8000001E0FFE7AA
:1000800000BF201F002101EB80001B49085C9DF888
:1000900000104840002101EB8401174A5054201FF2
:1000A000012101EB80001146085C9DF801104840D9
:1000B000012101EB84015054201F022101EB80003B
:1000C0001146085C9DF802104840022101EB8401B2
:1000D0005054201F032101EB80001146085C9DF85D
:1000E00003104840032101EB84015054641C2C2C64
:1000F00084D3F8BDFC220020D4300020D49D02001F
:100100002DE9F041002488E04648006810F824708A
:100110004448006810F824004249096801EB840152
:10012000497848403F49096801EB84018978484093
:100130003C49096801EB8401C97880EA0105394826
:10014000006810F824003749096801EB84014978F8
:1001500080EA0106304609F0ADFC064631480068E9
:1001600010F8240086EA050148402E49096801F884
:1001700024002C48006800EB840040782949096875
:1001800001EB8401897880EA0106304609F092FC8F
:1001900006462448006800EB8400407886EA0501A2
:1001A00048402049096801EB840148701D480068F7
:1001B00000EB840080781B49096801EB8401C97851
:1001C00080EA0106304609F075FC064615480068CD
:1001D00000EB8400807886EA0501484011490968EF
:1001E00001EB840188700F48006800EB8400C07840
:1001F00080EA0706304609F05DFC064609480068BB
:1002000000EB8400C07886EA05014840054909688A
:1002100001EB8401C870601CC4B2042CFFF674AFFB
:10022000BDE8F081F822002000F01F02012191407A
:10023000024A430942F823107047000080E200E0C0
:1002400000F01F0201219140024A430942F82310A5
:100250007047000080E100E000F01F0201219140A2
:100260004209920002F1E022C2F80011704700F04A
:100270001F02012191404209920002F1E022C2F8DE
:100280000011704700F01F0201219140024A43090A
:1002900042F823107047000000E200E010B500288B
:1002A00007DA4A07140E054A00F00F031B1FD45447
:1002B00003E04A07130E024A135410BD18ED00E084
:1002C00000E400E010B54FF4807004F0AAFC60B1C7
:1002D0004FF4807004F0AEFC012004F0B5FC012066
:1002E0000B494870002002F089FD4FF4827004F041
:1002F00098FC58B14FF4827004F09CFC022004F08A
:10030000A3FC01200249887002F078FD10BD0000B6
:10031000D428002010B50249024803F0DDFE10BDCC
:100320006029002000C0014010B50249024803F0D6
:10033000D3FE10BD682900200010024010B502490C
:10034000024803F0C9FE10BD7029002000200240C1
:1003500010B500200949086000210948C0F844117F
:10036000C0F84811C0F84C1100200549C1F800013F
:1003700002493C39086006F0D3FE10BD401101402F
:100380000010014010B506F0E1FD10BD70B50A483F
:10039000006868B1084800688047044600BF2546E9
:1003A00025B100BF284600F07BFE00BF00BF01E082
:1003B00003F0F0FD70BD00004C22002024490968C4
:1003C0004878234909684979214A126851702049BF
:1003D00009684A7A1E4909684A711D4909684A7BB9
:1003E0001B4909684A721A4909684873184909681B
:1003F000887817490968897A154A126891701449F2
:1004000009688872124909688879114909688A7BE4
:100410000F4909688A710E49096888730C4909688F
:10042000C8780B490968C97B094A1268D170084924
:100430000968CA7A06490968CA7305490968CA7908
:1004400003490968CA7202490968C8717047000007
:10045000F822002070B5002413E000250DE00A49C1
:10046000096801EB8501085D03F068FC064909682D
:1004700001EB85010855681CC5B2042DEFDB601C3B
:10048000C4B2042CE9DB70BDF82200200148024907
:10049000086070470090D0033023002010B502F0B0
:1004A00039FF10B182488349486702F04BFF28B1F9
:1004B00081480068C0F342308049086002F06CFF58
:1004C00028B17F48006820F080707D49086002F004
:1004D0007BFF48B100207B4908604FF08041C1F8A4
:1004E00010017649091F086002F098FF18B1032037
:1004F00072496431086002F0A9FF68B105207249B1
:100500000860012070497831086000206E49083188
:1005100008603F20091F086002F0B0FF002855D096
:100520006A4800686A4908606848001D0068091D3B
:100530000860664808300068091D086063480C3090
:100540000068091D0860614810300068091D0860D6
:100550005E4814300068091D08605C481830006867
:100560005B492031086059481C300068091D08604B
:10057000564820300068091D08605448243000683F
:10058000091D0860514828300068091D08604F485F
:100590002C300068091D08604C48303000684C4918
:1005A00040310860494834300068091D08604748F8
:1005B00038300068091D086044483C300068091D57
:1005C0000860424840300068091D086002F078FE6B
:1005D00030B139481430006800F04F003D490860E0
:1005E00037487438006840F4700035497439086041
:1005F00000BF00BF00BFBFF34F8F00BF00BF00BFF1
:1006000000BF00BF00BFBFF36F8F00BF00BF00BFC0
:100610003148006800F0004030B92F48001D0068E4
:1006200000F00040002840D001202C49086000BFA5
:100630002B4800680028FBD015202749086000BF20
:10064000274800680028FBD015212348001D0160C1
:1006500000BF234800680028FBD000201F49086025
:1006600000BF1F4800680028FBD000BF00BF00BFCC
:1006700000BF00BFBFF34F8F00BF00BF00BF1048D7
:10068000F038006800F4E06016490843001D0C498A
:10069000F039086000BF00BF00BFBFF34F8F00BF3D
:1006A00000BF00BF00BF00BFFDE7FFF7EFFE10BDBA
:1006B0000DF0ADBA00C00740440200103C050040F8
:1006C000FCED00E00C010040105600400404001056
:1006D00020C50040E40E00400012001004E5014077
:1006E00000E401400000FA0510B50648007F20B183
:1006F0000449054808F01EFF03E00249024808F0DB
:1007000053FE10BD40290020002000400FB4054BCF
:1007100010B503A9044A029800F03AF810BC5DF83D
:1007200014FB00006F3802002C22002002E008C8F1
:10073000121F08C1002AFAD170477047002001E05B
:1007400001C1121F002AFBD1704700000146202979
:1007500008DA012088400A4A104008B10120704799
:100760000020FCE7402909DAA1F12000012202FA69
:1007700000F008B10120F2E70020F0E70120EEE7E9
:10078000FC06FFBC00BFEFF31081084672B670474D
:100790002DE9FF4F8DB00F460546002606E02528BF
:1007A0000BD0DDE90F1290476D1C761C28780028CD
:1007B000F5D111B03046BDE8F08F0024A246A14625
:1007C0000122EC4900E0044315F8013F203B02FA06
:1007D00003F00842F7D128782A2810D06FF02F02B2
:1007E0002878A0F13001092914D80AEB8A0102EB1C
:1007F000410144F0020400EB010A6D1CF0E701CF57
:100800005FEA000A03D544F40054CAF1000A44F038
:1008100002046D1C28782E2817D115F8010F44F01A
:1008200004042A280ED06FF02F022878A0F130019E
:1008300009290AD809EB890102EB410100EB010902
:100840006D1CF2E757F8049B6D1C28786C280FD0BC
:1008500006DC4C2817D068280DD06A2814D104E093
:10086000742810D07A280FD10DE044F400140AE067
:1008700044F4801401E044F440146978814202D1C8
:1008800004F580146D1C6D1C2A786E2A1FD00CDCB8
:10089000632A31D004DC002A8BD0582A11D1A3E07E
:1008A000642A68D0692A0CD165E0732A2ED004DC52
:1008B0006F2A73D0702A04D19BE0752A6FD0782AF2
:1008C0006ED01046DDE90F129047761C50E1C4F35C
:1008D0000250022806D0032809D0042801CF09D0ED
:1008E000066045E101CFF117C0E9006140E101CFA9
:1008F00006803DE106703BE117F8040B8DF800001F
:1009000000208DF80100EB46012003E057F804BBFE
:100910004FF0FF3061074FF0000102D40DE008F105
:100920000101884649450FDA8045F8DB1BF80810BD
:100930000029F4D108E008F1010188468142FADB80
:100940001BF808100029F6D1DDE90F23AAEB0800F7
:100950008146214600F036F9304400EB080604E0F9
:10096000DDE90F121BF8010B9047B8F10108F7D22F
:1009700021464846F7E00A21C4F302534FF0000B2A
:100980000891022B04D001CFC117032B09D00AE034
:10099000FF1D27F00707F7E8020108E032E01FE03B
:1009A00020E000B2C117042B01D140B2C117031ED1
:1009B00071F1000307DA4FF0000CD0EB0C006CEB88
:1009C00001012D2302E0230504D52B238DF82430CB
:1009D000012303E0E30701D02023F7E7984658E01E
:1009E0000A2110E010210EE010204FF0000B0890BB
:1009F0000CE010214FF0000B44F004044FF0080904
:100A0000089103E008214FF0000B0891C4F3025352
:100A1000022B04D001CF0021032B06D006E0FF1DDE
:100A200027F00707F7E8020103E080B2042B00D1AA
:100A3000C0B24FF0000823072BD5702A07D0DDF88D
:100A400020C08CF0100C5CEA0B0C05D00EE04023AB
:100A50008DF82430012308E050EA010306D030234A
:100A60008DF824308DF8252002239846DDF820C02B
:100A70008CF0080C5CEA0B0C0BD150EA010301D19D
:100A8000630706D530238DF824304FF00108A9F113
:100A90000109582A04D038A20B9208AA0A920BE046
:100AA0003AA2F9E75B46089AFEF726FD0B9B9B5C92
:100AB0000A9A521E0A92137050EA0102F2D10A9861
:100AC000ADEB000000F1200B600702D524F4803468
:100AD00001E04FF00109D94502DDA9EB0B0000E070
:100AE000002000EB0B0141440890AAEB010AE0034F
:100AF00006D4DDE90F232146504600F063F8064492
:100B00004FF0000908E009A911F80900DDE90F120A
:100B1000904709F10109761CC145F4DBE0030CD5CF
:100B2000DDE90F232146504600F04CF8064404E06E
:100B3000DDE90F1230209047761C0899481E089076
:100B40000029F5DC08E00A980A990078491C0A9106
:100B5000DDE90F129047761CBBF10001ABF1010BF0
:100B6000F1DC21465046DDE90F2300F019F8064478
:100B70006D1C1BE60928010030313233343536371D
:100B800038396162636465660000000030313233D9
:100B90003435363738394142434445460000000079
:100BA0002DE9F041044600251E461746880404D46A
:100BB00005E039462020B0476D1C641EF9D5284653
:100BC000BDE8F0812DE9F041044600251E4690461F
:100BD000C80301D5302700E02027880404D505E0AC
:100BE00041463846B0476D1C641EF9D52846BDE81D
:100BF000F0810246002104E0505C08B101207047FA
:100C0000491C0629F8D30020F9E7000010B5044676
:100C10006CB108480068A04209D806484068A04264
:100C200005D3204603F0B8FA08B1012010BD00201A
:100C3000FCE70000382300202DE9FC4104468846EB
:100C40001646002537880020308094F82D0058B1D2
:100C50003A463146404600F038FF054600BF15B120
:100C60002846BDE8FC8100BFA07850B13A46314625
:100C7000404600F0E3FB054600BF0DB12846F0E713
:100C800000BFE07860B1E17848B23B463246414669
:100C900002F0C8FD054600BF0DB12846E1E700BFE0
:100CA000606868B1616891F900003B463246414690
:100CB00006F09FFE054600BF0DB12846D1E700BFF4
:100CC000208900280EDD43460622022104F1080097
:100CD000CDE9006708F0F6FD054600BF0DB12846D6
:100CE000BFE700BF208A00280EDD4346072203210C
:100CF00004F11000CDE9006708F0E4FD054600BFEF
:100D00000DB12846ADE700BF208B00280EDD43461D
:100D10001522142104F11800CDE9006708F0D2FD76
:100D2000054600BF0DB128469BE700BF206A58B1B9
:100D30003B4632464146206A02F0EBF8054600BFCA
:100D40000DB128468DE700BF606A58B13B46324678
:100D50004146606A03F060FE054600BF0DB12846BB
:100D60007FE700BF94F82C0000280BDD3B4632469D
:100D70004146204605F046FE054600BF0DB1284617
:100D80006FE700BF207858B13B46324641462046C7
:100D900003F0DBFE054600BF0DB1284661E700BF4A
:100DA00028465EE770B504461448FFF722FF054663
:100DB000012C06D0022C0BD0032C10D0042C1AD1FD
:100DC00013E00F48407810B10DB1012070BD00BF95
:100DD0000B48807810B10DB10220F7E700BF08483A
:100DE000C07808B10320F1E700BF0548007908B1D9
:100DF0000420EBE700BF0020E8E7000065210020A9
:100E0000E42700200146481C052290FBF2F302FB78
:100E10001300C0B27047F0B505460B4600211C68B0
:100E20000EE0665C481C275CAF4206D1881C20445B
:100E30001060701E90800020F0BD701C014400BF47
:100E400098888842EDD80520F6E70146C87800F07A
:100E5000040008B9072070470020FCE710B5012204
:100E60000221002001F054FA044600BF1CB1072CF7
:100E700001D0204610BD00BF07220221012001F051
:100E800047FA044600BF1CB1072C01D02046F1E709
:100E900000BF0A220021084601F03AFA044600BFCA
:100EA0001CB1072C01D02046E4E700BF0020E1E799
:100EB00070B5AAB03C211BA8FEF7F1FA00208DF80E
:100EC0006E0006208DF86F000120ADF874002649F1
:100ED0001E913C210CA8FEF7E2FA244890F8270066
:100EE000012804D145F68210ADF8040003E045F670
:100EF0000210ADF804001E480078ADF808001C4848
:100F0000007802F0D3FA054603951A4903980A6857
:100F1000026049684160039901F1080010221349F9
:100F20001031FEF7A3FA01A81590202104A8FEF7BE
:100F3000B6FA01208DF81300402008900020099097
:100F40000D4B04AA0CA900901BA800F0B3FB0446AB
:100F500000BF264626B100BF304600F0A1F800BF12
:100F600000BF2AB070BD00002C210020AC2C002056
:100F70002A210020652200205358020010B50446A3
:100F8000022001F033F810BD10B5002407E0074936
:100F9000096811F83400012103F080FF641C044843
:100FA00000788442F3D3002010BD0000E02100202F
:100FB000E42100202DE9F84306460C461746052F8C
:100FC00002D20720BDE8F88304F066F838B904F0CF
:100FD00033F8054600BF0DB12846F3E700BF1648B9
:100FE000066016480470164807600020154908601E
:100FF0001549086015E006EBC40814480068009025
:1010000098F802008DF8010098F80000104A69462F
:1010100003F09AFF054600BF0DB12846D2E700BF96
:1010200000BF201EA4F10101CCB2E4D1094A002185
:10103000094800F075F8C5E7E0210020E421002010
:10104000E8210020EC210020F02100206C9B020010
:10105000793D0200C5310200689B020000BF00BF5D
:1010600000BF00BF00BFBFF34F8F00BF00BF00BF76
:101070000948006800F4E06008490843001D06497B
:10108000086000BF00BF00BFBFF34F8F00BF00BFAD
:1010900000BF00BF00BFFDE70CED00E00000FA0557
:1010A0003EB50446002000900190029002946A46EA
:1010B000002144F20100FFF7D1FF3EBD70B50446A8
:1010C0000D46204602F056FB28B12946204602F084
:1010D00045FB002070BD0520FCE7034609B90E2042
:1010E000704712B1501E104008B10920F8E719608E
:1010F000501E988000209860D86000BFF0E770B55F
:1011000004460D46204602F035FBA188884205D8EA
:101110002946204602F041FB002070BD0420FCE778
:1011200010B503460C4600BF0B48406808B90820BC
:1011300010BD00BF0AB90720FAE70BB90720F7E78F
:101140001868007C08B10820F2E7196800200874CC
:101150004C744A6100BFEBE7F42100202DE9F04117
:1011600007460D4614461E46204600F0030109B905
:10117000012100E0002111B90720BDE8F0810CB980
:101180000720FAE705F0F6F811480660002011493B
:101190000870487008468570446000200E49086059
:1011A0000E4908700E4908701420FFF73DF807211A
:1011B0001420FFF773F81420FFF74EF8384605F0B7
:1011C000AFF805F0A7F8074908600020D5E7000050
:1011D00010220020F4210020FC2100200C220020FD
:1011E0000D220020002200202DE9F04104460E4689
:1011F0001746254600BF1048406810B90820BDE8D2
:10120000F08100BF0CB90820F9E7052E01D20720B4
:10121000F5E7686908B90820F1E7687C012801D181
:10122000304600E0002080463B4642463146284694
:1012300005F026FFE3E70000F421002070B5044626
:10124000254600BF0848406808B9082070BD00BFA7
:101250000CB1686908B90820F8E700202874022159
:10126000284605F03CFFF1E7F42100202DE9F0418C
:1012700004460F48077821460E48FFF71FFF8046B7
:1012800097B100200A49087001220B490B4803F06E
:1012900059FF054600BF2E4626B100BF3046FFF776
:1012A000FFFE00BF00BF00BF4046BDE8F081000068
:1012B0002622002098290020252200201822002024
:1012C0002DE9F04188B004460D46174698462E4851
:1012D00007601DB9072008B0BDE8F081A88882B278
:1012E0002A482968FFF7F9FE064600BF0EB13046CE
:1012F000F1E700BFA88982B22548A968FFF7EDFE93
:10130000064600BF0EB13046E5E700BF2022214966
:101310006846FEF7ABF860690690207C08B10120B2
:1013200000E000208DF814008DF81C80607C08B16E
:101330000E2000E000208DF81500E0680290A06803
:1013400003902068019060680090134A6946134832
:1013500003F0B6FE064600BF0EB13046BBE700BF45
:1013600000200F4908702068401C58B19DF81D00EE
:1013700010B90A4803F050FF01220A49074803F058
:10138000E1FEA8E70020A6E72022002098290020FF
:10139000A8290020709B0200519202001822002010
:1013A000262200202522002070B5044621460B4845
:1013B000FFF7A5FE054675B9094804F0C7F850B90E
:1013C00008490648FFF77AFE28B901220549044872
:1013D00004F006F80546284670BD0000A829002044
:1013E000182200202422002010B50446204605F0D3
:1013F000A7FA10BD70B5044625460E488068B0B106
:10140000ADB9FFF7BFF906460A4800680A49086007
:10141000084840684FF0E021C1F804010020054968
:1014200088601EB900BF62B600BF00BF00BF00BF2A
:1014300070BD0000B829002000E100E0F8B50546C5
:101440000C4617462088001DB84201D90C20F8BD73
:10145000684679DF064600BF0EB13046F7E700BFA9
:101460000320218868542088401C2080192021886E
:1014700068542088401C208020884119BDF8000055
:1014800008F0E4F82188084420800020DFE700000D
:1014900070B505460C462068401C28B1206804F051
:1014A000F6F8206804F0A9F86068401C18B1002123
:1014B000606804F095F828792D4901EB4010007F11
:1014C00050B32868A169C0F8241500BF617D227D52
:1014D000286841EA0203C0F86C3500BFD4E9001265
:1014E000286804F0A6F9207D01283FD1A068401C9F
:1014F00018B10021A06804F073F8E068401C28B11E
:10150000E06804F0C4F8E06804F077F8D4E9022158
:10151000286804F07AF929E02868A169C0F8241540
:1015200000BF617D227D286841EA0203C0F86C3566
:1015300000BFD4E90012286804F04EF9207D01288C
:1015400014D1A068401C18B10021A06804F048F82C
:10155000E068401C28B1E06804F099F8E06804F005
:101560004CF8D4E90221286804F01FF970BD00008E
:101570004029002030B50246002000234AE05C1CD0
:10158000E3B2145C302C07DB145C392C04DC145CF3
:101590002407240ECC5416E0145C412C08DB145CA8
:1015A000462C05DC145CE41F2407240ECC540AE00E
:1015B000145C612C07DB145C662C04DC145CE41FF7
:1015C0002407240ECC54441CE0B2145C302C08DBFD
:1015D000145C392C05DCCC5C155C303D2C43CC54C0
:1015E00016E0145C412C08DB145C462C05DCCC5C5A
:1015F000155C373D2C43CC540AE0145C612C07DBAE
:10160000145C662C04DCCC5C155C573D2C43CC543C
:10161000441CE0B2145C002CB1D10B7030BD2DE93C
:10162000F04192B080460D461F2011901090B8F105
:10163000000F17D04046FFF708FC044600BF1CB15E
:10164000204612B0BDE8F08100BF11AA08A94046AB
:10165000FFF7F2FA044600BF0CB12046F1E700BFE5
:1016600008AE02E0002600201190ADB1284605F03A
:10167000CBFB044600BF0CB12046E2E700BF10AA36
:1016800069462846FFF7D8FA044600BF0CB1204649
:10169000D7E700BF6F4602E0002700201090BDF89A
:1016A0004000C3B2BDF84400C1B23A46304672DFD2
:1016B000C7E700002DE9F04704460F4615461E46D1
:1016C000DDF8208004B115B90E20BDE8F0870120B7
:1016D0004849087000204849087020222946474898
:1016E000FDF7C4FE464806604648C0F800804FF645
:1016F000FF70454908804548002101608180817163
:101700003C214348FDF7CBFE207841490870A07882
:101710008870E078C87060784870D4E90402C1E944
:1017200004020846D4E90212C0E90212D4E9061202
:10173000C0E90612606AD8B1364835494862364970
:101740008160606A00883249496A0880606A8088DE
:101750002F49496A8880002005E0616A8968095C30
:101760002D4A1154401C2A49496A89888142F4D87B
:10177000A06A20B329492A488160254988622749FF
:101780002348806A8160A06A80882149896A8880AC
:10179000A06A00881E49896A0880002005E0A16AC5
:1017A0008968095C1D4A1154401C1949896A898855
:1017B0008142F4D894F82C00154981F82C00206A55
:1017C00058B1184812490862206A4088096A48805E
:1017D000206A00880E49096A0880606810B10C49C7
:1017E0006068486039460A48FFF719FF8146484655
:1017F0006BE700006021002063210020E427002027
:101800007421002078210020702100206421002014
:1018100004280020402800204C28002078280020A0
:101820006C2800206C21002010B504462088102868
:1018300004D0112806D01B280CD107E0204604F064
:1018400037F908E0204604F061F904E0204604F08E
:101850008FF900E000BF00BF10BD000010B574DFBD
:1018600001200F49087000200E49087006200E491B
:10187000C87000210C48FFF7D2FE04460CB1204688
:1018800010BD0A48007800F015F8044634B1084845
:10189000006818B120460649096888470020EFE72C
:1018A0007C2100207E2100200428002063210020CC
:1018B000782100207FB505464D48007810B90820F2
:1018C00004B070BD4B48057001F0C7FF20B1012086
:1018D000494908700020F3E74848002101608180F1
:1018E00081714748407818B14248007801280DD0EE
:1018F0004348807818B13F480078012806D0404816
:10190000807888B13B48007802280DD13D480068B6
:1019100038B101203C49087008203A4909688847D5
:1019200002E00020384908702846FFF73BFA3149A9
:10193000087034480068C0B108460078032803D016
:1019400008460078042810D12D48007868B12F4847
:10195000007850B900202E49087001202D490870E8
:10196000072028490968884702E0002029490870B3
:10197000002000900190029003908DF800008DF8F7
:1019800008001C48007805281CD2DFE800F0170387
:10199000080D1200684605F0EBF8044613E06846AF
:1019A00005F0F6F804460EE0684605F007F904462F
:1019B00009E0684605F032F9044604E000201649C3
:1019C000087000E000BF00BF0A48007828B16846F0
:1019D00073DF04460CB1204672E70A48006820B164
:1019E0000D480078074909688847002068E700002B
:1019F000602100206321002061210020642100205B
:101A0000E4270020742100206B2100207C2100208D
:101A10007E2100207D2100206221002070B5054636
:101A20001C2229461248FDF721FD002011490870AB
:101A3000286850B1104829680A6802604968416006
:101A40007ADF04463CB1204670BD0B487BDF04467C
:101A50000CB12046F8E74FF6FF70084908800020D7
:101A600007490870074A00210748FFF759FBEBE7D1
:101A70009828002094210020802100208A21002025
:101A800088210020ED9702001C9B020010B504463F
:101A90002088102806D0112808D012280ED05028EF
:101AA00010D107E0204603F0E3FF0CE0204604F0ED
:101AB00009F808E0204604F077F804E0204603F037
:101AC000CBFF00E000BF00BF10BD2DE9FC41054683
:101AD0000C46174620880930B84202D90C20BDE8D0
:101AE000FC8168466DDF064600BF0EB13046F6E762
:101AF00000BF0820218868542088401C20801B20BB
:101B0000218868542088401C208020882844DDF8E3
:101B100001100160BDF8051081802088801D2080A3
:101B20009DF80000400818B900202188685402E0A0
:101B30000120218868542088401C20800020CEE7A6
:101B40007FB5044600BF01208DF80E0041F60A0063
:101B5000ADF80C0000BF564A03A90120A0DF0546DE
:101B600015B1284604B070BD208800280DDD51480D
:101B70000090228804F13C0342F62920616801F0BC
:101B800001F805460DB12846ECE7208900280DDD57
:101B900049480090228904F13C0342F62420E16880
:101BA00000F0F0FF05460DB12846DBE7208A00284B
:101BB0000DDD42480090228A04F13C0342F62520C4
:101BC000616900F0DFFF05460DB12846CAE7208BAA
:101BD00000280DDD3A480090228B04F13C0342F6C8
:101BE0002720E16900F0CEFF05460DB12846B9E790
:101BF000208C00280DDD33480090228C04F13C033A
:101C000042F62620616A00F0BDFF05460DB1284668
:101C1000A8E7208D00280DDD2B480090228D04F1CF
:101C20003C0342F62820E16A00F0ACFF05460DB106
:101C3000284697E7206B90B101A8216B05F01DF9AC
:101C4000224804F13C03082201A9009042F6232017
:101C500000F098FF05460DB1284683E700BF606B92
:101C600070B11B480090606B027904F13C0301687D
:101C700042F62A2000F086FF05460DB1284671E79E
:101C8000A06B90B101A8A16B04F086F8114804F193
:101C90003C03072201A9009042F6502000F072FF99
:101CA00005460DB128465DE700BF00205AE7000059
:101CB0009621002098210020A0210020A8210020AA
:101CC000B0210020B8210020C0210020C821002020
:101CD000D0210020D821002010B504462046FFF76F
:101CE000D5FE2146094800F080F8204603F0CAFDE1
:101CF0002046FFF799FD204600F010FA20881D28A5
:101D000002D1204606F096F910BD000048230020BD
:101D100010B50723144A0021032006F041FE1348A2
:101D200011490A680260898881800F4880790F49CB
:101D3000213981F82700102301F11002022100202F
:101D400006F02EFE0123094AD21D0021184606F096
:101D500027FE00F09FF801F039FEFFF7A9F804F024
:101D60009DFE01F013F910BDD0230020CD2C0020E2
:101D7000F8B504460E4600BF0CB90E20F8BD00BFF2
:101D800000BF0EB90E20F9E700BF4FF6FF70A0822A
:101D90003068A0610020A07500BF01208DF802000E
:101DA00041F61010ADF8000000BFA21C69460120EA
:101DB000A0DF054600BF0DB12846DFE700BF314672
:101DC000204604F022FB054600BF0DB12846D5E7AA
:101DD00000BF3146204605F082FD054600BF0DB12B
:101DE0002846CBE700BF0020C8E770B505460C4683
:101DF00005B104B970BD2088102804D0112807D07F
:101E000050280FD109E02146284603F04DFE0AE094
:101E10002146284603F076FE05E02146284603F0D9
:101E2000E9FE00E000BF00BF00BFE3E737B584B0C4
:101E300004460D4600BF14B90E2007B030BD00BFE8
:101E4000A08A4FF6FF71884201D0A07D08B9082012
:101E5000F3E7BDF81800142801DD0720EDE70020A6
:101E60000090019002900390A089ADF800000395C6
:101E700006A8029001208DF80200A08A6946A6DF1C
:101E8000DBE770B50446204607F0DAFB054605F0AF
:101E9000010070BD70B588B027480068079000BF8A
:101EA00000235022254907A804F04EFF054600BF35
:101EB0002E4626B100BF3046FFF7F2F800BF00BF44
:101EC00000BF6A460121002004F01EFF044600BF47
:101ED000254625B100BF2846FFF7E2F800BF00BF46
:101EE0001720ADF81000684604F0FAFE044600BF63
:101EF000254625B100BF2846FFF7D2F800BF00BF36
:101F00000F4804F0E1FE044600BF254625B100BF9E
:101F10002846FFF7C5F800BF00BF0A4804F068FF75
:101F2000044600BF254625B100BF2846FFF7B8F894
:101F300000BF00BF08B070BDC89A02008023002017
:101F4000D91C02006F6E0200F8B504460E4600BFB1
:101F50000CB90E20F8BD00BF00BF0EB90E20F9E786
:101F600000BF4FF6FF70A0823068A0610020A0750E
:101F700000BF01208DF8020041F61210ADF80000FC
:101F800000BFA21C69460120A0DF054600BF0DB1BD
:101F90002846DFE700BF3146204600F06FFE0546C9
:101FA00000BF0DB12846D5E700BF0020D2E70000F2
:101FB00001460148405C7047EC9A020010B50146AA
:101FC000094B585C00BF4FF0A044234600BFD3F834
:101FD0001045C44004F001040CB1012000E00020D1
:101FE000024682F0010010BDEC9A020010B50246D4
:101FF0000949885C00BF4FF0A0442146D1F8043560
:10200000012484409C43C1F80845012484401C40BD
:10201000C1F80C4500BF10BDE89A020010B5044697
:102020000249085D012103F03DFB10BDE89A020062
:1020300010B504460249085D002103F033FB10BDD2
:10204000E89A020010B50146094B585C00BF4FF0FA
:10205000A044234600BFD3F80445C44004F0010463
:102060000CB1012000E00020024682F0010010BD0A
:10207000E89A02007CB500240CE00948055D0020C8
:1020800000900346012211460190284603F06CFAA5
:1020900000BF641C042CF0D300F004F87CBD0000E9
:1020A000E89A020010B5002403E02046FFF7B6FFCF
:1020B000641C042CF9D310BD10B5002403E02046A5
:1020C000FFF7B6FF641C042CF9D310BD02464FF095
:1020D000FF30002106E0054B5B5C934201D10846CE
:1020E00002E0491C0429F6D300BF7047EC9A0200B5
:1020F00070B505460C4600260648056014B120461A
:1021000004F089FE0448006810B9FEF7A7FE0646F1
:10211000304670BD582100205C21002070B5054676
:102120002888102802D011282CD115E01748006803
:1021300060B900F09BFF044600BF34B1144800684A
:1021400018B1204612490968884700BF0F48006847
:10215000401C0E49086016E00C480068401E0B4900
:1021600008600846006860B9FEF778FE044600BFC4
:1021700034B10748006818B1204605490968884706
:1021800000BF00E000BF00BF70BD00005C21002068
:102190005821002010B5002000F000FB044600BFCD
:1021A0001CB1062C01D0204610BD00BF012000F05C
:1021B000F5FA044600BF1CB1062C01D02046F3E717
:1021C00000BF0020F0E700002DE9F04106460F4671
:1021D0004FF0000800243046FFF778FF0446042C37
:1021E00041D227B3012F02D0022F3BD133E004EBC1
:1021F0004400234911F8008004EB4400084440786F
:1022000068B12048006800EB800041001E4A1F486A
:102210000068FEF7E9FF05460DB91B48067004EBA0
:102220004400174908448078194908551AE01748AE
:102230000068FFF703F81648005D04EB4401104AFC
:1022400011448978884205D104EB440011460844C2
:1022500090F8028006E004EB44000949084490F835
:10226000018000BF00BFB8F1000F06D00948006828
:1022700018B14046074909688847BDE8F081000069
:10228000B82700204421002050210020F89A0200A5
:10229000512100204C21002010B504462046FFF7B4
:1022A0008DFE10BD70B50546042D06D0072D15D046
:1022B0000A2D28D104F0E2FC26E0132113480088FF
:1022C00076DF0446082C08D000BF264626B100BFA2
:1022D0003046FEF7E5FE00BF00BF15E00B48008862
:1022E0004FF6FF7188420DD1FFF7B8FA0446082C6B
:1022F00008D000BF264626B100BF3046FEF7D0FE0C
:1023000000BF00BF00E000BF00BF70BD282100205B
:1023100030B503460020042B23D2012A07D101291E
:1023200003D103F10E04E4B200E00024224679B1A7
:10233000012902D0022911D104E003EB43040A4D24
:102340002A550DE003EB4304074D2C44627007E06F
:1023500003EB4304044D2C44A27001E0072000BFAE
:1023600000E0072030BD0000B827002070B504460B
:1023700000250548007800F0010018B1204600F063
:102380005FF80546284670BD482100202DE9F04140
:1023900005460E46904600241F4806601F4805600B
:1023A0001F48C0F8008005F00200F8B1002706E0E1
:1023B000012211463846FFF7ABFF04467F1C042F6D
:1023C00001D2002CF4D02CB9720804211548FEF774
:1023D000F1FD044614B9FEF7D7FD04462CB9124AA4
:1023E00000211248FEF79CFE044600BF05F00100E4
:1023F00008B1FFF73FFE2CB90D4A00210D48FEF74A
:102400008FFE04462CB90C4A01210C48FEF788FEC9
:1024100004462046BDE8F0814421002048210020E8
:102420004C210020FC9A0200B3270200F89A020017
:10243000BD450200F09A02007D0F0200F49A0200EE
:102440002DE9F041044600260025C048007820B15F
:102450000020BE490870FFF725FE182C75D2DFE872
:1024600004F00C11123D6895BFCDD3F0EEEDECEB0E
:10247000EAE9E8E7E6E5E4E3E2E1FFF713FEB44862
:1024800004705FE100BF0020FFF7DCFD58B10020C1
:10249000FFF7C4FD022C02D14FF4E16001E04FF4DC
:1024A0007A60054609E00020FFF7C2FD022C01D149
:1024B000C82001E04FF4C8700546A54804706420A8
:1024C000B5FBF0F0A349096800FB01F7002239468B
:1024D000A1480068FEF788FE064633E10020FFF7BA
:1024E000B1FD58B10020FFF799FD032C02D14FF444
:1024F000487001E04FF47A60054609E00020FFF7DC
:1025000097FD032C01D1C82001E04FF4C8700546A7
:102510008F4804706420B5FBF0F08E49096800FB19
:1025200001F7002239468C480068FEF75DFE06463A
:1025300008E10020FFF786FD60B10020FFF76EFD87
:10254000042C03D14FF47A6002E0FAE04FF47A6091
:1025500005460AE00020FFF76BFD042C02D14FF482
:10256000C87001E04FF4C8700546794804706420D3
:10257000B5FBF0F07749096800FB01F70022394606
:1025800075480068FEF730FE0646DBE00020FFF7E6
:1025900059FD50B10020FFF741FD052C01D1C820A5
:1025A00001E04FF47A60054609E00020FFF740FDA6
:1025B000052C01D1C82001E04FF4C87005466448DD
:1025C00004706420B5FBF0F06249096800FB01F774
:1025D0000022394660480068FEF706FE0646B1E074
:1025E0000020FFF703FD5A4804705A480022016892
:1025F00059480068FEF7F8FD0646A3E00020FFF703
:1026000017FD534804709DE0012050490870FFF702
:10261000EDFC5048002201684F480068FEF7E4FDD9
:1026200006468FE088E086E07AE071E068E062E0EC
:102630003EE03CE03AE038E036E030E01FE010E019
:10264000FFE7012041490870FFF7D0FC41480068CE
:1026500000EB8001002240480068FEF7C5FD0646F9
:1026600070E0012039490870FFF7C0FC39480022AA
:10267000016839480068FEF7B7FD064662E00120B0
:1026800032490870FFF7B2FC3248006800EB800165
:10269000002231480068FEF7A7FD064652E0FFF72A
:1026A0000BFD2B4804704DE000BF00BF00BF00BF12
:1026B0002A480068FEF7C2FD0646C4F11105B5B10F
:1026C000AEB9012D0FD9C82068436421B0FBF1F0E9
:1026D0002049096800FB01F7002239461F480068BD
:1026E000FEF782FD06460220FFF7A2FC02E0022070
:1026F000FFF794FC26E0FFF7D5FC1548047021E0B5
:10270000FFF7D0FC0020FFF793FC1148047019E09C
:10271000FFF7C8FC0120FFF78BFC0D48047011E0A7
:10272000FFF7C0FC0020FFF783FC0120FFF780FCCF
:102730000748047006E000BFFFF7BEFC04480470C1
:1027400000E000BF00BF3046BDE8F081412100201D
:102750004021002044210020F09A0200F49A020057
:1027600038B5FFF787FC00BF00230B4A0521184648
:10277000FEF7F4FC044600BF254625B100BF2846FD
:10278000FEF78EFC00BF00BF00BF06F0CBFD684621
:1027900000F016F838BD00008824002070B504460B
:1027A0002046FFF705FC0546032102F032FF00201A
:1027B00070BD10B5044620780221FFF705FD10BD5D
:1027C000F8B50546134A40F6CD410320FFF7DEFD7C
:1027D000044600BF264626B100BF3046FEF760FC27
:1027E00000BF00BF69460020FFF782FC044600BF1F
:1027F000264626B100BF3046FEF752FC00BF00BFA0
:102800009DF80000022801D1012000E0002028707E
:10281000F8BD0000A522020070B505460C46002652
:10282000022D06D0042D50D0052D36D0062D7DD199
:1028300094E0A048007890B99F48005D48B9012015
:102840009C49087000209C490870487088700120DD
:1028500070BD9948005D401E974908551CE0964898
:10286000015D9648005D814211DB002091490870AE
:102870009248C01EC078904908709048C01E0079E8
:1028800048708E48C01E407988700120E0E78A4871
:10289000005D401C8849085509E18748005D70B912
:1028A0008648C01EC078844908708448C01E0079DC
:1028B00048708248C01E407988700120C8E77E4871
:1028C000005D401E7C490855F1E07B48005D70BB0F
:1028D0007B480078401C7A4908707848C01EC07C4C
:1028E0000978884202DC0020754908707448007835
:1028F00000EB400171481130405C7049C91EC8703E
:102900006F48007800EB40016C4811300844417872
:102910006A48C01E01716A48007800EB40016748B0
:102920001130084481786548C01E01E0BEE00FE028
:102930004171C078604908706048C01E00794870D5
:102940005E48C01E4079887006F08CFE01207FE74B
:102950005948005D401E58490855A8E05948005D97
:10296000002851D15448015D5548007800EB4002E1
:10297000524811301044005D81423FDB50480078DE
:1029800000EB40014D481130405C4C49C91EC870F5
:102990004B48007800EB400148481130084441782A
:1029A0004648C01E01714648007800EB400143488C
:1029B0001130084481784148C01E41714048007878
:1029C000401C3F4908703D48C01EC07C09788842C1
:1029D00002DC00203A49087003F04EFE06463748F4
:1029E000C01EC078344908703448C01E0079487051
:1029F0003248C01E40798870304629E72E48005D75
:102A0000401C2D49085550E02B48015D2C480078AA
:102A100000EB4002294811301044005D81423FDC48
:102A20002748007800EB400124481130405C2349DE
:102A3000C91EC8702248007800EB40011F481130C1
:102A4000084441781D48C01E01711D48007800EB04
:102A500040011A481130084481781848C01E41715D
:102A600017480078401C164908701448C01EC07CE6
:102A70000978884202DC00201149087003F0FCFD4F
:102A800006460E48C01EC0780B4908700B48C01E91
:102A9000007948700948C01E407988703046D7E6F2
:102AA0000548005D401E0449085500E000BF00BF16
:102AB0000020CDE6C0220020B52200201B2D0020E2
:102AC000C1220020C72200204FF0FF31054A42F802
:102AD0002010082804DBFF23A0F1080150325354D2
:102AE00070470000E82800200146024850F8210005
:102AF00070470000E82800202DE9F04F03460C46FF
:102B00004FF0FF390AB1002000E0082084460AB1E6
:102B1000082000E00C208046614624E0154850F86B
:102B20002100401CF0B91D460846274616464FFABC
:102B300080FBDFF840A00AF1300A0AF805B0DFF8A0
:102B400034A04AF820704EB94FFA85FBA0F1080A6C
:102B5000DFF820E00EF1500E0EF80AB000BF4FFA79
:102B600081F902E0491C4145D8D300BF4846BDE881
:102B7000F08F0000E82800200146014840567047C9
:102B8000182900202DE9F0438FB007460D46144662
:102B90001E46DDF8588000BF0DB1012000E0002086
:102BA0008146B9F1000F04D100BF0020FEF778FA8A
:102BB00000BF00BF00BF002C01DD012000E00020AD
:102BC0008146B9F1000F04D100BF0020FEF768FA7A
:102BD00000BF00BF1C2107A8FCF761FC9DF81C008A
:102BE00020F00200801C8DF81C00002008900A9044
:102BF0000B900C900D9000BF01208DF83A00ADF8BD
:102C0000387000BF0020019030788DF80400707893
:102C10008DF805009DF8060020F00600801C8DF858
:102C200006009DF8060020F008008DF806009DF8CB
:102C3000060020F010008DF806009DF8060020F038
:102C400001008DF80600142102A8FCF728FC0EA84C
:102C5000029001A80390ADF810400020ADF81200DA
:102C6000ADF814400695434602AA07A90248008819
:102C7000A2DF0FB0BDE8F0839621002030B58FB001
:102C800004460D461C2108A8FCF709FC9DF820000D
:102C900020F00400001D8DF82000002009900B900A
:102CA0000C900D900E9000BF01208DF80A0042F6A6
:102CB0001230ADF8080000BF0020019000BF9DF861
:102CC000040020F00F00401C8DF804009DF8040063
:102CD00020F0F00010308DF8040000BF00BF9DF818
:102CE000050020F00F00401C8DF805009DF8050040
:102CF00020F0F00010308DF8050000BF9DF80600B0
:102D000020F00600801C8DF806009DF8060020F0DB
:102D100008008DF806009DF8060020F010008DF8E0
:102D200006009DF8060020F00100401C8DF806000A
:102D3000142103A8FCF7B3FB02A8039001A8049098
:102D40000120ADF814000020ADF816001420ADF8F5
:102D500018006088231D03AA08A9A2DF0FB030BDA8
:102D6000014639B10448884204D80448884201D950
:102D7000012070470020FCE7382300204823002072
:102D800010B502460B460021002000BF04E0545C51
:102D90000444E0B24C1CE1B29942F8DB10BD0000E3
:102DA0000A49496C81B10949096C084A02EBC10121
:102DB0000160114691F84010491C01F007011164AF
:102DC0001146496C491E516470470000C42A002016
:102DD0000178022902D0017803290BD106490A6C37
:102DE000817D1144044A116411464A6C817D511A57
:102DF000014A516470470000C42A002070B505469E
:102E00000DB9094C01E0084C083409E0204601F0F6
:102E1000CBF9064606B904E028467168884700BF2A
:102E2000F4E700BF70BD0000DC2800202DE9F0476A
:102E300082461E480068002836D01C480068056895
:102E400003F068FA07461A4804682146384604F039
:102E50005BF8C61C1748007808B903F06DFAAE425B
:102E600001D2284600E03046044424F07F44204646
:102E700003F04AFA03F04EFA80463946404604F021
:102E800043F800F103093946204604F03DF8814536
:102E900009D903F03FFA814603F036FA2F2001F0FA
:102EA000D9FE04F089F900BFBDE8F087FC210020BD
:102EB000002200201422002001460888062808DB92
:102EC0000888B0F5486F06DD08884FF6FF7290421B
:102ED00001D0072070474888062808DB4888B0F5ED
:102EE000486F06DD48884FF6FF72904201D00720F8
:102EF000F0E708884FF6FF72904208D04888904269
:102F000005D008884A88904201DD0720E2E70020CA
:102F1000E0E72DE9F04106460D4614469846208824
:102F2000801D404502D90C20BDE8F0813046FFF7F6
:102F3000C3FF074600BF0FB13846F5E700BF0520C5
:102F4000218868542088401C2080122021886854E1
:102F50002088401C208022885119308806F076FB9A
:102F600021880844208022885119708806F06EFB61
:102F70002188084420800020D6E710B5044600BF11
:102F80002046FEF78DF800BF10BD000030B587B0B9
:102F90001C216846FCF783FA0020009041F69A1045
:102FA00001904FF47020029003208DF80C00002057
:102FB000ADF80E008DF810000948059009480690FC
:102FC0006846FEF72BFD044600BF254625B100BF2D
:102FD0002846FEF765F800BF00BF07B030BD00000F
:102FE0002D5A02007B2F020038B51B4801F0C2F8B1
:102FF00020BB1A48007848B119484069E8B1002060
:103000000090174841696846884716E015480078DF
:1030100010B91348456801E0114885680022294627
:1030200011480068FEF7E0F8044634B10C488069A6
:1030300018B10B4881692046884709E00848406973
:1030400030B101200090064841696846884700BFBA
:1030500000200249087038BD8C21002094210020F6
:1030600098280020882100201C9B020010B5012216
:1030700000210846FFF74CF9044600BF1CB1072C9D
:1030800001D0204610BD00BF072202210120FFF71A
:103090003FF9044600BF1CB1072C01D02046F1E7E0
:1030A00000BF042202210020FFF732F9044600BFCE
:1030B0001CB1072C01D02046E4E700BF0020E1E767
:1030C0002DE9F0470646884691469A4616B1B9F171
:1030D000000F02D10120BDE8F08700250027002461
:1030E00000BFA8EB0500042800D238E0A91C715CE1
:1030F00001F1080000F0DAF9044624B9384600F07E
:10310000B7FB0520E7E70020206028466D1C305CF7
:10311000207128466D1C305C6071BAF1010F05D139
:103120006D1C28466D1C305CA07103E028466D1CA8
:10313000305CA071A8EB0500A179884204D2384622
:1031400000F096FB0220C6E7A2797119E01DFCF79A
:103150008DF9A0790544276027464545C1D300BFB6
:103160000FB90220B7E7C9F800700020B3E710B527
:10317000044604F01FFF10BD70B506460D460EB1A3
:10318000012070BD287920B1012809D0022813D16F
:103190000FE0284602F08EFF0446022028710DE061
:1031A000284600F003FB04460A2C01D141F61D54C9
:1031B00004E041F61D5401E00F2400BF00BF20468B
:1031C000DFE700002DE9F0478146002532E01C488A
:1031D000006800EBC5042178012000FA01F61948C7
:1031E0000068304020B317480068B04315490860B4
:1031F000207801F017FF0746217801208840124906
:1032000009680840217807FA01F188420FD16078F7
:10321000012800D100E00020784080F001086068BB
:1032200020B108F0FF0120786268904700BF00BF1E
:10323000681CC5B2054800788542C8DBBDE8F08748
:10324000E0210020F0210020EC210020E4210020DA
:10325000014614480078144A127890421DD0114853
:103260000078401C0F4A107010460078022801D1E7
:10327000002010700D480B4A127850F822000860A8
:103280000B4A086812681044094A1060104600682A
:1032900020F07F401060012070470020086000BFD0
:1032A000FAE700000C2200200D220020042200205A
:1032B0000022002010B50446A08928DF10BD0000C0
:1032C00013480078062820D11148001D007800F02E
:1032D0000F00D0B90E480830007800F0F000302818
:1032E00001D1012070470A480830007800F0F00052
:1032F000402801D10120F5E705480830007800F0AA
:10330000F000502801D10120ECE70020EAE700009E
:10331000E00F00F00A48007806280ED10848001D8A
:10332000007800F00F0040B905480830007800F040
:10333000F000302801D1012070470020FCE7000098
:10334000E00F00F013480078062820D11148001D36
:10335000007800F00F00D0B90E480830007800F077
:10336000F000302801D1012070470A480830007869
:1033700000F0F000402801D10120F5E705480830B1
:10338000007800F0F000502801D10120ECE7002087
:10339000EAE70000E00F00F00A48007806280ED1A6
:1033A0000848001D007800F00F0040B905480830BB
:1033B000007800F0F000302801D101207047002093
:1033C000FCE70000E00F00F013480078062820D149
:1033D0001148001D007800F00F00D0B90E480830E9
:1033E000007800F0F000302801D1012070470A4831
:1033F0000830007800F0F000402801D10120F5E706
:1034000005480830007800F0F000502801D1012074
:10341000ECE70020EAE70000E00F00F00A4800783F
:1034200006280ED10848001D007800F00F0040B9B2
:1034300005480830007800F0F000302801D1012064
:1034400070470020FCE70000E00F00F00A48007819
:1034500006280ED10848001D007800F00F0040B982
:1034600005480830007800F0F000302801D1012034
:1034700070470020FCE70000E00F00F00A480078E9
:1034800006280ED10848001D007800F00F0040B952
:1034900005480830007800F0F000502801D10120E4
:1034A00070470020FCE70000E00F00F02DE9F0413C
:1034B0000746C02F02DD0020BDE8F08105F014FBB7
:1034C00000250BE02448006800EBC5008088083820
:1034D000B84201D32C4603E0681CC5B2032DF1DBD2
:1034E00000BF1D48006800EBC400807918B905F0E2
:1034F000FDFA0020E0E71848006800EBC40080797E
:10350000401E1549096801EBC40188711248006822
:1035100050F83400006808B90020CDE70E4909686A
:1035200051F8340001F0B3FA064666B90A4800685B
:1035300000EBC4008079401C0749096801EBC40115
:1035400088710020B8E7A6F10408C8F8044005F027
:10355000CDFA08F10800AFE7282300202DE9F0415B
:103560000546002615B90120BDE8F08105F0BCFA3A
:10357000284600F039F804466068032800D300BFED
:103580002079214600F038F818B105F0AFFA022092
:10359000EAE7284600F064F80746124A61681268B4
:1035A00052F83100394601F07CFA0E49606809682A
:1035B00001EBC0008079401C0A4A6168126802EB86
:1035C000C101887107496068096801EBC0008688FD
:1035D000A6F108012846FBF762FF05F087FA0020F4
:1035E000C2E70000282300200146A1F1080070472F
:1035F00010B500F015F810BD10B502460B4607488F
:10360000006850F83240216804E08B4201D101206B
:1036100010BD09680029F8D10020F9E7282300200F
:1036200070B5002414E00C4E366806EBC406B3797E
:10363000094E366806EBC406B288084E56F82410C8
:10364000054E366856F8340001F039FA0546641C18
:10365000032CE8DB70BD000028230020D49E02006C
:103660000146081F70470278072A34D2DFE802F0CB
:10367000330407102029300000220A702CE00122B8
:103680000A7003898B818388CB81C2688A6023E0BA
:1036900002220A7003898B818388CB81C2688A6089
:1036A000027C062A01D1012300E000230B7413E001
:1036B00003220A70C3888B810389CB81C2688A6028
:1036C0000AE004220A70C3888B810023CB8103E0C7
:1036D00005220A7000E000BF00BF704770B50546C4
:1036E000002409E0064850F8240020B1044850F8AE
:1036F000241028468847641C082CF3D370BD0000B2
:103700002C2A0020F0B5034600241FE0124E30683A
:1037100006689E4203D90668F61A06601AE0066833
:103720009B1B06683444002606600B4E35680A4F22
:10373000C6693E60C66846B10E1926F07F464660EF
:10374000C66886601668C661156000BF02480068DA
:103750000028DBD100BFF0BDFC21002070B504467D
:103760000D462A460021204600F00EF8A068401CB5
:10377000A06070BD01468A68C868801A704701461B
:103780008A68C868801A704710B583680B448488BB
:1037900023400468E35C137010BDC26883881A403C
:1037A00003689954C268521CC26070473EB5044613
:1037B0000C4B6A460021A01D02F038FC05465DB99D
:1037C000019802F009FD0546012006498988064A4C
:1037D00002EB0111887303E002480021016041609F
:1037E00028463EBD442200200C2B002002490978C7
:1037F0008143014A11707047342200200146044879
:103800000078084008B1012070470020FCE7000064
:1038100034220020024909780143014A117070479F
:103820003422002030B504461088C01C984201D9CB
:103830000C2030BD0220158848551088401C10808F
:103840000120158848551088401C108015884C555B
:103850001088401C10800020EBE708B5684600F097
:103860005FF8009808B1012008BD0020FCE7704710
:1038700070B5064606B970BD3446002500BF256800
:103880002046FFF76BFE2C46002CF8D100BFF2E774
:10389000F8B505460C4616461F461C48007800F051
:1038A000010008B90120F8BD2846FFF759FA08B908
:1038B0000220F8E70CB90320F5E7C4F30B0008B1C8
:1038C0000620F0E72868A04204D804EB06306968B7
:1038D000884201D90520E6E70EB90420E3E76846EF
:1038E00002F0D2FA08B90720DDE700984760009897
:1038F0000560022000990872C4F30F300099888196
:103900000098068202F07CFB0020CCE727220020F2
:1039100070B505460C46204602F020FB70BD000045
:10392000014609B9032070470248406E0860002034
:10393000F9E70000C42900202DE9F84305460C46AC
:1039400016461F46DDF820801F48007800F0010071
:1039500010B90120BDE8F8832846FFF701FA08B93D
:103960000220F7E706B10CB90320F3E706F00300E5
:1039700010B904F0030008B10620EBE72868A04264
:1039800004D804EB87016868884201D20520E1E78A
:103990000FB90420DEE7684602F076FA08B907207E
:1039A000D8E70098C0F804800098056001200099CD
:1039B00008720098C660009804610098878202F03F
:1039C0001FFB0020C6E70000272200203EB500BFF5
:1039D0009DF8000020F00F00401C00909DF80000B2
:1039E00020F0F0001030009000BF082214A16846BB
:1039F0007CDF044600BF254625B100BF2846FDF701
:103A00004FFB00BF00BF0020019002901820ADF8CE
:103A100004003C20ADF806000020ADF808004FF48B
:103A20007A70ADF80A0001A87ADF044600BF254687
:103A300025B100BF2846FDF733FB00BF00BF3EBDE8
:103A400054595F4C696768740000000070B5054602
:103A50000DB1012070BD1848007B18B10020164937
:103A6000087301E000F0D4F81348007808281DD24C
:103A7000DFE800F01C04080C101C141800F03CF8DF
:103A8000044615E000F0B2F8044611E000F08EF8AC
:103A900004460DE000F044F8044609E000F01CF98B
:103AA000044605E000F028F9044601E00F2400BFB9
:103AB00000BF2046CEE700002C2B00200C480089D8
:103AC000401C0B49088100204880087300BF0CE0AF
:103AD000084901EB0011097809B9012200E0002230
:103AE00003490A310A54411C88B20228F0DB7047AE
:103AF0002C2B00200C2B002010B5084800F032F8C9
:103B000040B900200549891E08704880486041F688
:103B10001D5010BD00F06AF8FBE700002E2B0020BE
:103B200070B50D4845880D4800EB0510808968B9CF
:103B30000A4800EB05100023012241680848FFF7FE
:103B4000A7FE044604200449087002E000F08CF847
:103B50000446204670BD00002C2B00200C2B0020BA
:103B60003823002010B501460022002015E00D4B3F
:103B70001B5C83B100240B4B1C540B4B03EB001359
:103B80009B8943B9084B03EB00139B7B012B02D1AC
:103B90000880012203E0431C98B20228E7DB00BF43
:103BA000104610BD362B00200C2B0020F8B50C4819
:103BB00044680C4800680B49898800EB81056088DF
:103BC000C01C86B2032006490870002000900846F9
:103BD0003346294642680448FFF7AEFEF8BD0000B0
:103BE0002C2B00203C2200203823002010B5074950
:103BF0004888091D02F0C0FA18B1FFF7D7FF044644
:103C000002E0FFF78DFF0446204610BD2C2B00205C
:103C100010B514480078082820D2DFE800F0041F0F
:103C20001F0A1016171BFFF749FF01200D490870E6
:103C300015E000F06DF802200A4908700FE000F06E
:103C400029F806200749087009E000BF0720054948
:103C5000087004E001200349087000E000BF00BFC5
:103C600010BD00002C2B002010B50520064908705F
:103C70000220064988800846002301220168044882
:103C8000FFF706FE10BD00002C2B00203C22002078
:103C9000382300200D4908680D4949880D4A02EB78
:103CA00001114968094A116009494988094A02EB2A
:103CB0000111486005498988054A5288054B03EB84
:103CC000021211810221014A918070473C2200209A
:103CD0002C2B00200C2B002010B506200449087066
:103CE0004988044A02EB0111486801F0D1FF10BD78
:103CF0002C2B00200C2B002010B507200349087046
:103D00000020486001F0D4FF10BD00002C2B0020E3
:103D1000054A50684288D21C91B2044A92880A44EB
:103D2000024B9A80704700002C2B00203C22002080
:103D300001460148405C7047D49C0200014601489E
:103D4000405C7047D49B020006480078102801DBD5
:103D5000002070470348007802490978491C014A4D
:103D60001170F6E72C230020014601F11100704785
:103D70000146087C704700002DE9F04105460F46DA
:103D8000012000FA05F418480068FDF757FA0646C6
:103D90000EB1BDE8F081154800682040E0B9284622
:103DA00001F040F928B1124800682043104908602A
:103DB00004E00F480068A0430D4908600B48006804
:103DC00020430A49086000220A4801680648006842
:103DD000FDF70AFA064604E004480068A0430349D8
:103DE000086000BFD5E70000689B0200F0210020BA
:103DF000EC210020E821002070B505460C46207813
:103E000001F098FF70BD014688884FF6FF7290421E
:103E100003D0088808B1012070470020FCE770B586
:103E200004460D4600230021002000BF20E0E65C90
:103E30003009002805DB092803DC00F13006565460
:103E400002E000F1570656544E1CF1B2E65C06F053
:103E50000F00002805DB092803DC00F1300656546A
:103E600002E000F1570656544E1CF1B25E1CF3B24C
:103E7000AB42DCDB0026565470BD00002DE9F0415A
:103E800006460C460F272EB10120FFF7AFFC01209C
:103E9000BDE8F081207930B101280AD0022833D062
:103EA000032864D13EE001F003FF074601202071A2
:103EB0005EE04FF00008002516E0324800EB0510E8
:103EC000007802280ED12F4901EB0511486801F056
:103ED000DFFE074600202B4901EB051108704FF06B
:103EE000010803E0681C85B2022DE6DB00BFB8F1D3
:103EF000000F08D10220FFF78DFC0120FFF776FCB0
:103F000041F61D50C4E733E01F4800230122016839
:103F10001E48FFF7BDFC074602201B498880002091
:103F2000207125E01849086801F0B2FE07461848DC
:103F300045881548D0F80080124800EB051040680D
:103F4000114908600F4800EB0510C0F804800846CE
:103F500080880C4901EB0511088102200A498880FC
:103F60000020084901EB05110870207100E000BF36
:103F700000BF27B10120FFF739FC0E2088E70020A1
:103F800086E700000C2B00203C2200203823002074
:103F90002C2B0020F8B52748007800B9F8BD002583
:103FA0002548006808B9012000E00020064600BF4F
:103FB000DDB92248007800B1F0E7684648DF0446E2
:103FC000052C01D101250FE024B100BF2046FDF7EB
:103FD00067F809E0009800F023FF1948006818B15D
:103FE000174900980968884700BFDEB91348007870
:103FF00000B1D3E713480088009069461248006872
:1040000061DF0446052C01D101260AE024B100BF7E
:104010002046FDF745F804E00B48006806490968AA
:10402000884700BF0DB106B100E0C1E700BF00BF87
:10403000B4E70000502200205C2200205122002022
:1040400060220020582200205422002070B504462F
:104050000D4620791D4901EB4010007FF8B14FF467
:104060008871206801F0CAFB4FF49071206801F05C
:10407000C5FB4FF49271206801F0C0FB4FF4A271B0
:10408000206801F0BBFB1249206801F0C7FB2068E3
:1040900000F0FEFE0646294600F0CAFE14E04FF48A
:1040A0008E71206801F07AFB4FF4A271206801F054
:1040B00075FB0849206801F080FB206800F0E8FEED
:1040C0000646294600F0B4FE70BD000040290020DD
:1040D000100302008000020070B505460C46102156
:1040E000284601F045FB68B14FF48871284601F07D
:1040F00031FB38B14FF48871284601F032FB0120C2
:10410000216888472021284601F032FB68B14FF42E
:104110008A71284601F01EFB38B14FF48A71284697
:1041200001F01FFB0220216888478021284601F00A
:104130001FFB68B14FF48E71284601F00BFB38B1BC
:104140004FF48E71284601F00CFB0020216888474F
:104150004FF48271284601F0FDFA48B14FF48271A4
:10416000284601F0FEFA01202071032021688847CB
:1041700070BD000001464888064A1288904206DB5E
:104180004888044A5288904201DC01207047002090
:10419000FCE7000080210020014601F0030008B97F
:1041A000012070470020FCE70146086808B102685A
:1041B0000A6070472DE9F05F0746884691469B46A6
:1041C0002FB1B8F1000F02D0B9F1000F02D10120D8
:1041D000BDE8F09F3C464FF0000A03E0A079001DC7
:1041E00082442468002CF9D11FFA8AF0FFF75EF9A7
:1041F00005460DB90520EBE700263C461FE0227975
:104200003046761C2A5462793046761C2A54BBF11B
:10421000010F08D100223046761C2A54A27930467C
:10422000761C2A5403E0A2793046761C2A54A279DF
:10423000A819E11DFBF71AF9A07906442468002C9F
:10424000DDD1C9F80060C8F800500020C0E70000C8
:1042500070B500240025D3480078401CD14908706F
:10426000D148007800287DD0CF484078CE49897861
:10427000884278D0CC484078CB498870084640784E
:10428000072871D2DFE800F00421224B4C4D4E008C
:104290000020C549C8700021C34801714171017AED
:1042A0008171C178022004F08CFDBF4801790320A0
:1042B00004F087FDBC484179042004F082FDBA482F
:1042C0008179002004F07DFD81E000BFB648007DCB
:1042D000B549C8700846417D0171817D4171002159
:1042E0008171007DB1490870AF48407D4870AE488B
:1042F000807D8870AC48C178022004F062FDAA4835
:104300000179032004F05DFDA7484179042004F001
:1043100058FDA5488179002004F053FD57E000BF07
:1043200000BF00BFA0484078032802D10020A04968
:10433000087000209B4908709E4908700846007864
:1043400000EB400198481430405C9749C870994888
:10435000007800EB400194481430084441789248BA
:10436000017102E01BE133E030E09248007800EB9D
:1043700040018D481430084481788B4841710021F8
:1043800081714078062808D18A480078401C894904
:10439000087002F071F9054602E005F063F9054680
:1043A0008148C178022004F00CFD7F480179032088
:1043B00004F007FD7C484179042004F002FD7A48AE
:1043C0008179002004F0FDFC284670BD00BFE6E0C6
:1043D0007548407807286ED2DFE800F004212241BA
:1043E0004243440000207049C87000216E480171AA
:1043F0004171017A8171C178022004F0E2FC6A48BF
:104400000179032004F0DDFC67484179042004F0C1
:10441000D8FC65488179002004F0D3FCBEE000BFE1
:104420006148007D6049C8700846417D0171817D09
:10443000417100218171C178022004F0C2FC5A4808
:104440000179032004F0BDFC57484179042004F0B1
:10445000B8FC55488179002004F0B3FC9EE000BF11
:1044600000BF00BF504890F85D0000285CD10024D8
:1044700043E05148005D38B94B48407806283AD0AF
:1044800000204A49085536E04B48005D4549097807
:1044900091FBF0F200FB121068BB434840780628FD
:1044A0000AD0414948782146FEF7B6F918B30020F2
:1044B0003C49087023E070E03B4948782146FEF70C
:1044C000ABF90546BDB10020364908703748017880
:1044D000022004F076FC35484178032004F071FC9A
:1044E00032488178042004F06CFC0021084604F076
:1044F00068FC284669E7601CC4B2032CB9DB00BF26
:104500002A480178022004F05CFC28484178032006
:1045100004F057FC25488178042004F052FC002167
:10452000084604F04EFC36E000201F4981F85D008B
:1045300008464078022802D100201D49087000205A
:10454000184908701848007D1749C8700846417D11
:104550000171817D4171002181714078062803D16C
:1045600002F08AF8054602E005F07CF805460E48A0
:10457000C178022004F025FC0B480179032004F0E7
:1045800020FC09484179042004F01BFC064881798D
:10459000002004F016FC284617E700BF00BF0020EB
:1045A00013E70000BF220020182D0020B5220020B4
:1045B000C0220020C1220020BA22002010B50446EB
:1045C0000448007800F0010018B103480078FDF7B6
:1045D00037FF10BD482100204021002070B51C4845
:1045E00004781C48066827E01948406804EB440139
:1045F00000EBC105601CC4B215488078A04200D110
:1046000000242878022802D0032812D103E0686829
:1046100002F000FD0EE007E00E4908680021017479
:104620000C4AC169116000BF0A4800680028F3D134
:1046300000E000BF00BF00BF05484078A042D3D1D2
:1046400004480068B04201D0012070BD0020FCE7A2
:10465000F4210020FC2100202DE9F04105463748D7
:1046600007685AE015B12C46E56929E034494968E4
:10467000334A127802EB420201EBC200304909785A
:10468000491C2F4A1170114609789278914202D143
:1046900000212B4A117044680178012901D1217C45
:1046A00001B13AE081686160C168A1600169E160BF
:1046B0004169A1612349097809B10021616000BF06
:1046C000214960680968401A20F07F401F498842EC
:1046D00008D21D496068096802F016FCA168084408
:1046E00020600FE018486168006802F00DFC064683
:1046F000A068B04203D9A068801B206001E00020C0
:10470000206000BF00206060A060012020740020B5
:10471000E061204602F04AFC00BF002DA2D108480B
:1047200000780749497888429CD104480068B8421B
:1047300002D00120BDE8F0810020FBE7FC21002031
:10474000F42100201522002000220020FFFF7F001E
:1047500070B50024002600256E20FEF7A7FE044653
:1047600004B970BDFF226E212046FAF791FE6E2338
:1047700022460121022004F013F994F86D00FF286D
:1047800026D101204949087000204870C8700021D6
:104790004648017141711421817114204349886098
:1047A00008468179002004F00CFB4048C1780220C3
:1047B00004F007FB3D480179032004F002FB3B486D
:1047C0004179042004F0FDFA2046FEF7C7FEC8E751
:1047D000207836490870607848700846D4F802108E
:1047E000C0F80310A0793149886008468068E179F3
:1047F00000EB01202D49886008468068217A00EB93
:1048000001402A49886008468068617A00EB0160AF
:1048100026498860A07AC8600846C068E17A00EB43
:1048200001202249C8600846C068217B00EB014096
:104830001E49C8600846C068617B00EB01601B49E7
:10484000C8600846D4F80E1001610FE006EB46017F
:1048500016481430014405F11200204402880A80F1
:1048600080788870701CC6B2E81CC5B2062EEDDBDD
:1048700005F1120001192C220C482630FAF7F6FD3A
:1048800005F13E00205C094981F8520005F13F0026
:104890000119064853300A6802604A684260098973
:1048A00001812046FEF75AFE00BF5AE7182D00206E
:1048B00070B503460020002410291BDA00BF16E063
:1048C00088420CDB451A5E5D451A6D1C5D5D354402
:1048D000ECB2155C65400E4E755D155405E0155C37
:1048E0001E5C75400A4E755D1554451CE8B21028D3
:1048F000E6DB0BE0002007E0155C1E5C7540044E13
:10490000755D1554451CE8B21028F5DB70BD00003C
:10491000E09E0200FDF724FFFEF76AFEFDF7F8F9BE
:1049200004F010FC09A0FBF7F1FE0CA10E2004F02E
:10493000FDFB0320FDF77CFB0220FDF779FB00BFA8
:1049400004F0DBF801F06EFAFAE700000D0A5541B9
:104950005254205374617274210D0A007475796188
:1049600020626C6520737461727400002DE9F04759
:104970008046894615461F46089E0FB1062D02DB6C
:104980000020BDE8F087022D02D1042E00D03EE0C9
:10499000052D02D1042E00DD39E0012D02D1012EBA
:1049A00000D034E0042D02D1012E00D02FE006F11A
:1049B0000800FEF77BFD044604B928E000202060D3
:1049C000606084F80490A6716571022D01D0052DF8
:1049D00014D13A68002100200DE022FA01F303F01F
:1049E000FF0A331A5B1E04F1070C0CF803A001F157
:1049F0000803D9B2401CB042EFDB04E0324639462E
:104A0000E01DFAF733FDC4F800802046B9E74046C0
:104A1000FEF72EFF0020B4E72DE9F04105460E46D3
:104A200014469846A888871C2088801C3844404536
:104A300002D90C20BDE8F081FE2F01D90C20F9E746
:104A4000781C218870542088401C2080FF202188F9
:104A500070542088401C208022889119288804F0F6
:104A6000F5FD218808442080A88800280DDDA8686D
:104A700008B90720DEE7AA8823889819A968FAF7F9
:104A8000F5FC2088A988084420800020D2E7014650
:104A9000086808B9002070470A6810680860101D8F
:104AA000F9E710B502460B46184600F005F8044633
:104AB00010682060146010BD0146081F7047F0B5F3
:104AC00005460C46164605B10CB90020F0BD2C6019
:104AD000F01C20F003072146002203E0C8190860FB
:104AE0000146521C581E9042F8DC002008602846FF
:104AF000ECE710B50146C8788A78904208D0CA78A9
:104B00004B785B1E1A400B784C6812FB034010BDBB
:104B10000020FCE78178491C81707047C178491CEE
:104B2000C170704701468878CA78801AC0B24A7846
:104B3000904208DA88784A78521E10400A784B680A
:104B400010FB023070470020FCE72DE9F84F0546C6
:104B50000F46144698462878012804D1687810B981
:104B60000720BDE8F88F2088801C404508D82878A9
:104B7000012807D12088801C69780844404501D964
:104B80000C20EEE72088A8EB0000801E86B200967D
:104B90002188891CC81969467DDF814600BFB9F1AB
:104BA000000F01D04846DCE700BF2878022806D174
:104BB000BDF80000B04202DC4FF0090A0BE04FF0F4
:104BC000080A2878012805D16878B04202DC6878A4
:104BD000009000E00096BDF80000FE2801D90C20EE
:104BE000BFE7BDF80000401C218878542088401C95
:104BF0002080208807F800A02088401C2080208882
:104C0000BDF80010084420800020AAE730B5024615
:104C10000B46D40802F00702012090401D5D284099
:104C200030BD01464FF08040405808B10120704728
:104C30000020FCE708B500224FF080410A500958D7
:104C4000009100BF08BD00000149086070470000E6
:104C50000803004000B9704700BF00BF00BF00BF9D
:104C600000BF00BF00BF00BF00BF1E4909681E4A49
:104C7000914200D130E000BF00BF00BF00BF00BFC5
:104C800000BF00BF00BF00BF00BF00BF00BF00BF2C
:104C900000BF00BF00BF00BF00BF00BF00BF00BF1C
:104CA00000BF00BF00BF00BF00BF00BF00BF00BF0C
:104CB00000BF00BF00BF00BF00BF00BF00BF00BFFC
:104CC00000BF00BF00BF00BF00BF00BF00BF00BFEC
:104CD00000BF00BF00BF00BF401E00D0BDE700BF47
:104CE000B9E70000302300200024F40000B9704729
:104CF00000BF00BF00BF00BF00BF00BF00BF00BFBC
:104D000000BF1E4909681E4A914200D130E000BF31
:104D100000BF00BF00BF00BF00BF00BF00BF00BF9B
:104D200000BF00BF00BF00BF00BF00BF00BF00BF8B
:104D300000BF00BF00BF00BF00BF00BF00BF00BF7B
:104D400000BF00BF00BF00BF00BF00BF00BF00BF6B
:104D500000BF00BF00BF00BF00BF00BF00BF00BF5B
:104D600000BF00BF00BF00BF00BF00BF00BF00BF4B
:104D7000401E00D0BDE700BFB9E70000302300208F
:104D80000024F40010B500241648007808B18524EA
:104D900025E000201349886048600861C86000BFB2
:104DA00000BF4109890001F1E021D1F80011012281
